{
  "contractName": "MetaCoin",
  "abi": [
    {
      "inputs": [],
      "stateMutability": "nonpayable",
      "type": "constructor"
    },
    {
      "anonymous": false,
      "inputs": [
        {
          "indexed": true,
          "internalType": "address",
          "name": "_from",
          "type": "address"
        },
        {
          "indexed": true,
          "internalType": "address",
          "name": "_to",
          "type": "address"
        },
        {
          "indexed": false,
          "internalType": "uint256",
          "name": "_value",
          "type": "uint256"
        }
      ],
      "name": "Transfer",
      "type": "event"
    },
    {
      "inputs": [
        {
          "internalType": "address",
          "name": "",
          "type": "address"
        }
      ],
      "name": "balances",
      "outputs": [
        {
          "internalType": "uint256",
          "name": "",
          "type": "uint256"
        }
      ],
      "stateMutability": "view",
      "type": "function"
    },
    {
      "inputs": [
        {
          "internalType": "address",
          "name": "receiver",
          "type": "address"
        },
        {
          "internalType": "uint256",
          "name": "amount",
          "type": "uint256"
        }
      ],
      "name": "sendCoin",
      "outputs": [
        {
          "internalType": "bool",
          "name": "sufficient",
          "type": "bool"
        }
      ],
      "stateMutability": "nonpayable",
      "type": "function"
    },
    {
      "inputs": [
        {
          "internalType": "address",
          "name": "addr",
          "type": "address"
        }
      ],
      "name": "getBalanceInEth",
      "outputs": [
        {
          "internalType": "uint256",
          "name": "",
          "type": "uint256"
        }
      ],
      "stateMutability": "view",
      "type": "function"
    },
    {
      "inputs": [
        {
          "internalType": "address",
          "name": "addr",
          "type": "address"
        }
      ],
      "name": "getBalance",
      "outputs": [
        {
          "internalType": "uint256",
          "name": "",
          "type": "uint256"
        }
      ],
      "stateMutability": "view",
      "type": "function"
    }
  ],
  "bytecode": "0x608060405234801561000f575f80fd5b506127105f803273ffffffffffffffffffffffffffffffffffffffff1673ffffffffffffffffffffffffffffffffffffffff1681526020019081526020015f208190555061065a806100605f395ff3fe608060405234801561000f575f80fd5b506004361061004a575f3560e01c806327e235e31461004e5780637bd703e81461007e57806390b98a11146100ae578063f8b2cb4f146100de575b5f80fd5b610068600480360381019061006391906103e3565b61010e565b6040516100759190610426565b60405180910390f35b610098600480360381019061009391906103e3565b610122565b6040516100a59190610426565b60405180910390f35b6100c860048036038101906100c39190610469565b6101df565b6040516100d591906104c1565b60405180910390f35b6100f860048036038101906100f391906103e3565b610340565b6040516101059190610426565b60405180910390f35b5f602052805f5260405f205f915090505481565b5f73__ConvertLib____________________________6396e4ee3d5f808573ffffffffffffffffffffffffffffffffffffffff1673ffffffffffffffffffffffffffffffffffffffff1681526020019081526020015f205460026040518363ffffffff1660e01b815260040161019992919061052b565b602060405180830381865af41580156101b4573d5f803e3d5ffd5b505050506040513d601f19601f820116820180604052508101906101d89190610566565b9050919050565b5f815f803373ffffffffffffffffffffffffffffffffffffffff1673ffffffffffffffffffffffffffffffffffffffff1681526020019081526020015f2054101561022c575f905061033a565b815f803373ffffffffffffffffffffffffffffffffffffffff1673ffffffffffffffffffffffffffffffffffffffff1681526020019081526020015f205f82825461027791906105be565b92505081905550815f808573ffffffffffffffffffffffffffffffffffffffff1673ffffffffffffffffffffffffffffffffffffffff1681526020019081526020015f205f8282546102c991906105f1565b925050819055508273ffffffffffffffffffffffffffffffffffffffff163373ffffffffffffffffffffffffffffffffffffffff167fddf252ad1be2c89b69c2b068fc378daa952ba7f163c4a11628f55a4df523b3ef8460405161032d9190610426565b60405180910390a3600190505b92915050565b5f805f8373ffffffffffffffffffffffffffffffffffffffff1673ffffffffffffffffffffffffffffffffffffffff1681526020019081526020015f20549050919050565b5f80fd5b5f73ffffffffffffffffffffffffffffffffffffffff82169050919050565b5f6103b282610389565b9050919050565b6103c2816103a8565b81146103cc575f80fd5b50565b5f813590506103dd816103b9565b92915050565b5f602082840312156103f8576103f7610385565b5b5f610405848285016103cf565b91505092915050565b5f819050919050565b6104208161040e565b82525050565b5f6020820190506104395f830184610417565b92915050565b6104488161040e565b8114610452575f80fd5b50565b5f813590506104638161043f565b92915050565b5f806040838503121561047f5761047e610385565b5b5f61048c858286016103cf565b925050602061049d85828601610455565b9150509250929050565b5f8115159050919050565b6104bb816104a7565b82525050565b5f6020820190506104d45f8301846104b2565b92915050565b6104e38161040e565b82525050565b5f819050919050565b5f819050919050565b5f61051561051061050b846104e9565b6104f2565b61040e565b9050919050565b610525816104fb565b82525050565b5f60408201905061053e5f8301856104da565b61054b602083018461051c565b9392505050565b5f815190506105608161043f565b92915050565b5f6020828403121561057b5761057a610385565b5b5f61058884828501610552565b91505092915050565b7f4e487b71000000000000000000000000000000000000000000000000000000005f52601160045260245ffd5b5f6105c88261040e565b91506105d38361040e565b92508282039050818111156105eb576105ea610591565b5b92915050565b5f6105fb8261040e565b91506106068361040e565b925082820190508082111561061e5761061d610591565b5b9291505056fea2646970667358221220d2446adfe7e0b3115cd1949c22a1cf1257676896adbe5dedc53cf98dedd8b04864736f6c63430008150033",
  "immutableReferences": {},
  "source": "//SPDX-License-Identifier: MIT\r\npragma solidity ^0.8.13;\r\n\r\nimport \"./ConvertLib.sol\";\r\n\r\ncontract MetaCoin {\r\n    mapping (address => uint) public balances;\r\n    event Transfer(address indexed _from, address indexed _to, uint _value);\r\n\r\n    constructor() {\r\n        balances[tx.origin] = 10000;\r\n    }\r\n\r\n    function sendCoin(address receiver, uint amount) public returns (bool sufficient) {\r\n        if (balances[msg.sender] < amount) return false;\r\n        balances[msg.sender] -= amount;\r\n        balances[receiver] += amount;\r\n        emit Transfer(msg.sender, receiver, amount);\r\n        return true;\r\n    }\r\n    function getBalanceInEth(address addr) public view returns (uint) {\r\n        return ConvertLib.convert(balances[addr], 2);\r\n    }\r\n    function getBalance(address addr) public view returns (uint) {\r\n        return balances[addr];\r\n    }\r\n}",
  "sourcePath": "D:\\RVU\\Sem_4\\Advanced_Blockchain\\dapp\\contracts\\MetaCoin.sol",
  "compiler": {
    "name": "solc",
    "version": "0.8.21+commit.d9974bed.Emscripten.clang"
  },
  "schemaVersion": "3.4.16",
  "updatedAt": "2025-03-28T05:49:52.959Z",
  "devdoc": {
    "kind": "dev",
    "methods": {},
    "version": 1
  },
  "userdoc": {
    "kind": "user",
    "methods": {},
    "version": 1
  }
}